:100000000C9462000C948A000C948A000C948A0070
:100010000C948A000C948A000C948A000C948A0038
:100020000C948A000C948A000C948A000C948A0028
:100030000C948A000C948A000C948A000C948A0018
:100040000C949D020C948A000C946B020C94450253
:100050000C948A000C948A000C948A000C948A00F8
:100060000C948A000C948A000000000025002800EF
:100070002B0000000000240027002A0000000000E0
:1000800023002600290004040404040404040202DA
:100090000202020203030303030301020408102007
:1000A0004080010204081020010204081020000012
:1000B0000008000201000003040700000000000027
:1000C0000000DC0311241FBECFEFD8E0DEBFCDBFA0
:1000D00011E0A0E0B1E0E6E6F8E002C005900D9284
:1000E000A631B107D9F721E0A6E1B1E001C01D9228
:1000F000AC3BB207E1F710E0C2E6D0E004C02197C4
:10010000FE010E942B04C136D107C9F70E94E70205
:100110000C9431040C940000AF92BF92CF92DF9206
:10012000EF92FF920F931F93CF93DF936C017B01AC
:100130008B01040F151FEB015E01AE18BF08C0173D
:10014000D10759F06991D601ED91FC910190F081B0
:10015000E02DC6010995892B79F7C501DF91CF9173
:100160001F910F91FF90EF90DF90CF90BF90AF90D5
:100170000895FC01538D448D252F30E0842F90E0AD
:10018000821B930B541710F0CF9608950197089592
:10019000FC01918D828D981761F0A28DAE0FBF2F5B
:1001A000B11D5D968C91928D9F5F9F73928F90E0B1
:1001B00008958FEF9FEF0895FC01918D828D981720
:1001C00031F0828DE80FF11D858D90E008958FEF5D
:1001D0009FEF0895FC01918D228D892F90E0805C26
:1001E0009F4F821B91098F73992708958FE191E0AA
:1001F0000E94EA0021E0892B09F420E0822F089573
:1002000080E090E0892B29F00E94F60081110C9487
:1002100000000895FC01A48DA80FB92FB11DA35AA9
:10022000BF4F2C91848D90E001968F739927848F16
:10023000A689B7892C93A089B1898C918370806439
:100240008C93938D848D981306C00288F389E02DDA
:1002500080818F7D80830895EF92FF920F931F938B
:10026000CF93DF93EC0181E0888F9B8D8C8D981369
:100270001AC0E889F989808185FF15C09FB7F89475
:10028000EE89FF896083E889F989808183708064C1
:1002900080839FBF81E090E0DF91CF911F910F910C
:1002A000FF90EF900895F62E0B8D10E00F5F1F4F1B
:1002B0000F731127E02E8C8D8E110CC00FB607FC2A
:1002C000FACFE889F989808185FFF5CFCE010E94B8
:1002D0000A01F1CFEB8DEC0FFD2FF11DE35AFF4F1B
:1002E000F0829FB7F8940B8FEA89FB898081806246
:1002F000CFCFCF93DF93EC01888D8823B9F0AA8903
:10030000BB89E889F9898C9185FD03C0808186FDD0
:100310000DC00FB607FCF7CF8C9185FFF2CF80811F
:1003200085FFEDCFCE010E940A01E9CFDF91CF9189
:1003300008953FB7F89480911B0190911C01A09102
:100340001D01B0911E0126B5A89B05C02F3F19F0D5
:100350000196A11DB11D3FBFBA2FA92F982F882745
:10036000BC01CD01620F711D811D911D42E0660F20
:10037000771F881F991F4A95D1F708958F929F92F2
:10038000AF92BF92CF92DF92EF92FF920E949901BB
:100390004B015C0184EFC82EDD24D394E12CF12CB9
:1003A0000E949901681979098A099B09683E73407E
:1003B00081059105A8F321E0C21AD108E108F108EE
:1003C00088EE880E83E0981EA11CB11CC114D104D4
:1003D000E104F10429F7FF90EF90DF90CF90BF90F8
:1003E000AF909F908F900895FC0101900020E9F755
:1003F0003197AF01481B590BBC018FE191E00C9480
:100400008C008F929F92AF92BF920F931F93CF93C6
:10041000DF93CDB7DEB7A1970FB6F894DEBF0FBE5E
:10042000CDBF19A2423008F44AE08E010F5D1F4F84
:10043000842E912CB12CA12CA50194010E940904B9
:10044000E62FB901CA01EA30F4F4E05DD801EE9379
:100450008D01232B242B252B79F790E080E010973A
:1004600019F0CD010E94F401A1960FB6F894DEBFF9
:100470000FBECDBFDF91CF911F910F91BF90AF9075
:100480009F908F900895E95CE1CF1F920F920FB675
:100490000F9211242F933F934F935F936F937F930A
:1004A0008F939F93AF93BF93EF93FF938FE191E06F
:1004B0000E940A01FF91EF91BF91AF919F918F919F
:1004C0007F916F915F914F913F912F910F900FBE50
:1004D0000F901F9018951F920F920FB60F92112434
:1004E0002F938F939F93EF93FF93E0912F01F091C0
:1004F00030018081E0913501F091360182FD1BC011
:100500009081809138018F5F8F732091390182171C
:1005100041F0E0913801F0E0E15EFE4F958F80936D
:100520003801FF91EF919F918F912F910F900FBE06
:100530000F901F9018958081F4CF1F920F920FB6E5
:100540000F9211242F933F938F939F93AF93BF9359
:100550008091170190911801A0911901B0911A0191
:100560003091160123E0230F2D3758F50196A11D78
:10057000B11D209316018093170190931801A09349
:100580001901B0931A0180911B0190911C01A09157
:100590001D01B0911E010196A11DB11D80931B018B
:1005A00090931C01A0931D01B0931E01BF91AF91C8
:1005B0009F918F913F912F910F900FBE0F901F90A1
:1005C000189526E8230F0296A11DB11DD2CF78946D
:1005D00084B5826084BD84B5816084BD85B5826048
:1005E00085BD85B5816085BD80916E0081608093F9
:1005F0006E00109281008091810082608093810062
:100600008091810081608093810080918000816071
:10061000809380008091B10084608093B1008091CC
:10062000B00081608093B00080917A0084608093F4
:100630007A0080917A00826080937A0080917A00BB
:10064000816080937A0080917A00806880937A003C
:100650001092C100E0912F01F091300182E080837F
:10066000E0912B01F0912C011082E0912D01F0918D
:100670002E018FEC808310923701E0913301F091CD
:10068000340186E08083E0913101F0913201808174
:1006900080618083E0913101F09132018081886036
:1006A0008083E0913101F091320180818068808304
:1006B000E0913101F091320180818F7D8083CCE91E
:1006C000D0E0FE01249108E810E0F801849188232D
:1006D000C9F090E0880F991FFC01EE58FF4FA591DB
:1006E000B491FC01E859FF4F459154913FB7F894FC
:1006F0009C91822F809598239C93FA019081892365
:1007000080833FBF90EBE92E90E0F92E20E0C22ECF
:1007100020E0D22EF7018491FE019491F80194918A
:10072000992391F0882339F0833079F120F58130D5
:1007300091F18230A1F1E92FF0E0EE0FFF1FE458B4
:10074000FF4FA591B4918C914AE06EE671E680E08E
:1007500090E00E94010282E191E00E94F4010E9477
:10076000BE01C114D104B1F20E94F600882391F2B7
:100770000E940000CFCF8730A9F08830C9F08430C4
:10078000D1F6809180008F7D03C0809180008F77AB
:1007900080938000D0CF84B58F7784BDCCCF84B5D3
:1007A0008F7DFBCF8091B0008F778093B000C3CF57
:1007B0008091B0008F7DF9CFEFE1F1E013821282DA
:1007C00088EE93E0A0E0B0E084839583A683B783AE
:1007D00084E091E09183808385EC90E09587848725
:1007E00084EC90E09787868780EC90E0918B808BFB
:1007F00081EC90E0938B828B82EC90E0958B848BE4
:1008000086EC90E0978B868B118E128E138E148E51
:100810000895A1E21A2EAA1BBB1BFD010DC0AA1F41
:10082000BB1FEE1FFF1FA217B307E407F50720F059
:10083000A21BB30BE40BF50B661F771F881F991FD4
:100840001A9469F760957095809590959B01AC011D
:10085000BD01CF010895EE0FFF1F0590F491E02D2B
:060860000994F894FFCF9B
:10086600000000002C018C00B9007901EA00C800E4
:06087600DC000D0A000089
:00000001FF
